{"abi":[{"type":"constructor","inputs":[{"name":"user","type":"address","internalType":"address"}],"stateMutability":"nonpayable"},{"type":"function","name":"checkIfTokenInWallet","inputs":[{"name":"_token","type":"address","internalType":"address"}],"outputs":[{"name":"","type":"bool","internalType":"bool"}],"stateMutability":"view"},{"type":"function","name":"checkIsOperator","inputs":[{"name":"_operator","type":"address","internalType":"address"}],"outputs":[{"name":"","type":"bool","internalType":"bool"}],"stateMutability":"view"},{"type":"function","name":"checkIsWhitelistedRouter","inputs":[{"name":"_router","type":"address","internalType":"address"}],"outputs":[{"name":"","type":"bool","internalType":"bool"}],"stateMutability":"view"},{"type":"function","name":"deposit","inputs":[{"name":"_token","type":"address","internalType":"address"},{"name":"amount","type":"uint256","internalType":"uint256"}],"outputs":[],"stateMutability":"nonpayable"},{"type":"function","name":"getTokenBalance","inputs":[{"name":"_token","type":"address","internalType":"address"}],"outputs":[{"name":"","type":"uint256","internalType":"uint256"}],"stateMutability":"view"},{"type":"function","name":"getTokenByIndex","inputs":[{"name":"index","type":"uint256","internalType":"uint256"}],"outputs":[{"name":"","type":"address","internalType":"address"}],"stateMutability":"view"},{"type":"function","name":"performSwapV2","inputs":[{"name":"router","type":"address","internalType":"address"},{"name":"tokenIn","type":"address","internalType":"address"},{"name":"tokenOut","type":"address","internalType":"address"},{"name":"amountIn","type":"uint256","internalType":"uint256"},{"name":"amountOutMin","type":"uint256","internalType":"uint256"}],"outputs":[],"stateMutability":"nonpayable"},{"type":"function","name":"s_balances","inputs":[{"name":"token","type":"address","internalType":"address"}],"outputs":[{"name":"amount","type":"uint256","internalType":"uint256"}],"stateMutability":"view"},{"type":"function","name":"s_isOperator","inputs":[{"name":"","type":"address","internalType":"address"}],"outputs":[{"name":"","type":"bool","internalType":"bool"}],"stateMutability":"view"},{"type":"function","name":"s_isTokenInWallet","inputs":[{"name":"token","type":"address","internalType":"address"}],"outputs":[{"name":"inWallet","type":"bool","internalType":"bool"}],"stateMutability":"view"},{"type":"function","name":"s_isWhitelistedRouter","inputs":[{"name":"","type":"address","internalType":"address"}],"outputs":[{"name":"","type":"bool","internalType":"bool"}],"stateMutability":"view"},{"type":"function","name":"s_owner","inputs":[],"outputs":[{"name":"","type":"address","internalType":"address"}],"stateMutability":"view"},{"type":"function","name":"s_tokenCounter","inputs":[],"outputs":[{"name":"","type":"uint256","internalType":"uint256"}],"stateMutability":"view"},{"type":"function","name":"s_tokens","inputs":[{"name":"index","type":"uint256","internalType":"uint256"}],"outputs":[{"name":"token","type":"address","internalType":"address"}],"stateMutability":"view"},{"type":"function","name":"setOperator","inputs":[{"name":"_operator","type":"address","internalType":"address"},{"name":"authorized","type":"bool","internalType":"bool"}],"outputs":[],"stateMutability":"nonpayable"},{"type":"function","name":"setWhitelistedRouter","inputs":[{"name":"_router","type":"address","internalType":"address"},{"name":"whitelisted","type":"bool","internalType":"bool"}],"outputs":[],"stateMutability":"nonpayable"},{"type":"function","name":"withdraw","inputs":[{"name":"_token","type":"address","internalType":"address"},{"name":"amount","type":"uint256","internalType":"uint256"}],"outputs":[],"stateMutability":"nonpayable"},{"type":"function","name":"withdrawAll","inputs":[],"outputs":[],"stateMutability":"nonpayable"},{"type":"event","name":"Deposit","inputs":[{"name":"token","type":"address","indexed":true,"internalType":"address"},{"name":"amount","type":"uint256","indexed":true,"internalType":"uint256"}],"anonymous":false},{"type":"event","name":"Swap","inputs":[{"name":"operator","type":"address","indexed":true,"internalType":"address"},{"name":"tokenIn","type":"address","indexed":true,"internalType":"address"},{"name":"tokenOut","type":"address","indexed":true,"internalType":"address"},{"name":"amountIn","type":"uint256","indexed":false,"internalType":"uint256"},{"name":"amountOutMin","type":"uint256","indexed":false,"internalType":"uint256"},{"name":"amountOut","type":"uint256","indexed":false,"internalType":"uint256"}],"anonymous":false},{"type":"event","name":"Withdraw","inputs":[{"name":"token","type":"address","indexed":true,"internalType":"address"},{"name":"amount","type":"uint256","indexed":true,"internalType":"uint256"}],"anonymous":false},{"type":"error","name":"SmartWallet__InsufficientBalance","inputs":[]},{"type":"error","name":"SmartWallet__InvalidAmount","inputs":[]},{"type":"error","name":"SmartWallet__InvalidOperatorAddress","inputs":[]},{"type":"error","name":"SmartWallet__InvalidRouterAddress","inputs":[]},{"type":"error","name":"SmartWallet__InvalidTokenAddress","inputs":[]},{"type":"error","name":"SmartWallet__NoTokensToWithdraw","inputs":[]},{"type":"error","name":"SmartWallet__NotOperator","inputs":[]},{"type":"error","name":"SmartWallet__NotOwner","inputs":[]},{"type":"error","name":"SmartWallet__TokenNotInWallet","inputs":[]},{"type":"error","name":"SmartWallet__TokensMustBeDifferent","inputs":[]},{"type":"error","name":"SmartWallet__TransferFailed","inputs":[]}],"bytecode":{"object":"0x6080604052348015600e575f5ffd5b506040516111a13803806111a1833981016040819052602b91604e565b5f80546001600160a01b0319166001600160a01b03929092169190911790556079565b5f60208284031215605d575f5ffd5b81516001600160a01b03811681146072575f5ffd5b9392505050565b61111b806100865f395ff3fe608060405234801561000f575f5ffd5b5060043610610111575f3560e01c8063853828b61161009e578063acc10c491161006e578063acc10c49146102b8578063d9d7b351146102e0578063e14a26b914610302578063e39782401461032d578063f3fef3a31461033f575f5ffd5b8063853828b614610244578063a3aad6811461024c578063ab32eb6914610277578063abac323414610296575f5ffd5b80633aecd0e3116100e45780633aecd0e3146101a357806347e7ef24146101cb578063558a7297146101de578063644b7a43146101f15780638308eb7914610231575f5ffd5b806301092894146101155780630b21a83b1461014c5780631f8e5f911461016357806320e91e3a1461018e575b5f5ffd5b610137610123366004610e1e565b60026020525f908152604090205460ff1681565b60405190151581526020015b60405180910390f35b61015560015481565b604051908152602001610143565b610137610171366004610e1e565b6001600160a01b03165f9081526002602052604090205460ff1690565b6101a161019c366004610e4e565b610352565b005b6101556101b1366004610e1e565b6001600160a01b03165f9081526004602052604090205490565b6101a16101d9366004610e83565b6103cd565b6101a16101ec366004610e4e565b6105c6565b6102196101ff366004610eab565b5f908152600560205260409020546001600160a01b031690565b6040516001600160a01b039091168152602001610143565b6101a161023f366004610ec2565b610641565b6101a1610a25565b61013761025a366004610e1e565b6001600160a01b03165f9081526003602052604090205460ff1690565b610155610285366004610e1e565b60046020525f908152604090205481565b6101376102a4366004610e1e565b60036020525f908152604090205460ff1681565b6102196102c6366004610eab565b60056020525f90815260409020546001600160a01b031681565b6101376102ee366004610e1e565b60066020525f908152604090205460ff1681565b610137610310366004610e1e565b6001600160a01b03165f9081526006602052604090205460ff1690565b5f54610219906001600160a01b031681565b6101a161034d366004610e83565b610be3565b5f546001600160a01b0316331461037c5760405163cb520a1f60e01b815260040160405180910390fd5b6001600160a01b0382166103a3576040516326bb5ea160e21b815260040160405180910390fd5b6001600160a01b03919091165f908152600360205260409020805460ff1916911515919091179055565b5f546001600160a01b031633146103f75760405163cb520a1f60e01b815260040160405180910390fd5b81816001600160a01b03821661042057604051635baae24760e11b815260040160405180910390fd5b5f811161044057604051631a9556ed60e11b815260040160405180910390fd5b6001600160a01b0384165f9081526004602052604081208054859290610467908490610f27565b90915550506001600160a01b0384165f9081526006602052604081205460ff16151590036104f157600180545f90815260056020526040812080546001600160a01b0319166001600160a01b03881617905581548291906104c9908390610f27565b90915550506001600160a01b0384165f908152600660205260409020805460ff191660011790555b6040516323b872dd60e01b81523360048201523060248201526044810184905284905f906001600160a01b038316906323b872dd906064016020604051808303815f875af1158015610545573d5f5f3e3d5ffd5b505050506040513d601f19601f820116820180604052508101906105699190610f40565b9050806105895760405163b3975cb560e01b815260040160405180910390fd5b60405185906001600160a01b038816907fe1fffcc4923d04b559f4d29a8bfc6cda04eb5b0d3c460751c2402c5c5cc9109c905f90a3505050505050565b5f546001600160a01b031633146105f05760405163cb520a1f60e01b815260040160405180910390fd5b6001600160a01b03821661061757604051634042722b60e11b815260040160405180910390fd5b6001600160a01b03919091165f908152600260205260409020805460ff1916911515919091179055565b335f9081526002602052604090205460ff166106705760405163daa5febb60e01b815260040160405180910390fd5b6001600160a01b0385165f9081526003602052604090205460ff166106a8576040516326bb5ea160e21b815260040160405180910390fd5b6001600160a01b03841615806106c557506001600160a01b038316155b156106e357604051635baae24760e11b815260040160405180910390fd5b826001600160a01b0316846001600160a01b03160361071557604051637d66ccd960e11b815260040160405180910390fd5b5f821161073557604051631a9556ed60e11b815260040160405180910390fd5b604051636eb1769f60e11b81523060048201526001600160a01b0386811660248301525f919086169063dd62ed3e90604401602060405180830381865afa158015610782573d5f5f3e3d5ffd5b505050506040513d601f19601f820116820180604052508101906107a69190610f5b565b9050828110156108925760405163095ea7b360e01b81526001600160a01b0387811660048301525f602483015286169063095ea7b3906044016020604051808303815f875af11580156107fb573d5f5f3e3d5ffd5b505050506040513d601f19601f8201168201806040525081019061081f9190610f40565b5060405163095ea7b360e01b81526001600160a01b0387811660048301526024820185905286169063095ea7b3906044016020604051808303815f875af115801561086c573d5f5f3e3d5ffd5b505050506040513d601f19601f820116820180604052508101906108909190610f40565b505b6040805160028082526060820183525f9260208301908036833701905050905085815f815181106108c5576108c5610f86565b60200260200101906001600160a01b031690816001600160a01b03168152505084816001815181106108f9576108f9610f86565b6001600160a01b0392831660209182029290920101525f9088166338ed17398686853061092742603c610f27565b6040518663ffffffff1660e01b8152600401610947959493929190610f9a565b5f604051808303815f875af1158015610962573d5f5f3e3d5ffd5b505050506040513d5f823e601f3d908101601f19168201604052610989919081019061100a565b9050856001600160a01b0316876001600160a01b0316336001600160a01b03167fd6d34547c69c5ee3d2667625c188acf1006abb93e0ee7cf03925c67cf7760413888886600188516109db91906110d2565b815181106109eb576109eb610f86565b6020026020010151604051610a13939291909283526020830191909152604082015260600190565b60405180910390a45050505050505050565b5f546001600160a01b03163314610a4f5760405163cb520a1f60e01b815260040160405180910390fd5b6001545f03610a7157604051630f271f3160e21b815260040160405180910390fd5b5f5b600154811015610bdc575f818152600560209081526040808320546001600160a01b031680845260049092528220549091819003610acd5750505f81815260056020526040902080546001600160a01b0319169055610bd4565b6001600160a01b0382165f8181526004602081815260408084208490558784526005825280842080546001600160a01b03191690558484526006909152808320805460ff191690555163a9059cbb60e01b815233918101919091526024810184905290919063a9059cbb906044016020604051808303815f875af1158015610b57573d5f5f3e3d5ffd5b505050506040513d601f19601f82011682018060405250810190610b7b9190610f40565b905080610b9b5760405163b3975cb560e01b815260040160405180910390fd5b60405182906001600160a01b038516907f884edad9ce6fa2440d8a54cc123490eb96d2768479d49ff9c7366125a9424364905f90a35050505b600101610a73565b505f600155565b5f546001600160a01b03163314610c0d5760405163cb520a1f60e01b815260040160405180910390fd5b81816001600160a01b038216610c3657604051635baae24760e11b815260040160405180910390fd5b5f8111610c5657604051631a9556ed60e11b815260040160405180910390fd5b6001600160a01b0384165f9081526006602052604081205460ff1615159003610c9257604051631de9a35f60e01b815260040160405180910390fd5b6001600160a01b0384165f90815260046020526040902054831115610cca57604051630f2eda4b60e11b815260040160405180910390fd5b6001600160a01b0384165f9081526004602052604081208054859290610cf19084906110d2565b90915550506001600160a01b0384165f908152600460205260408120549003610d34576001600160a01b0384165f908152600660205260409020805460ff191690555b60405163a9059cbb60e01b81523360048201526024810184905284905f906001600160a01b0383169063a9059cbb906044016020604051808303815f875af1158015610d82573d5f5f3e3d5ffd5b505050506040513d601f19601f82011682018060405250810190610da69190610f40565b905080610dc65760405163b3975cb560e01b815260040160405180910390fd5b60405185906001600160a01b038816907f884edad9ce6fa2440d8a54cc123490eb96d2768479d49ff9c7366125a9424364905f90a3505050505050565b80356001600160a01b0381168114610e19575f5ffd5b919050565b5f60208284031215610e2e575f5ffd5b610e3782610e03565b9392505050565b8015158114610e4b575f5ffd5b50565b5f5f60408385031215610e5f575f5ffd5b610e6883610e03565b91506020830135610e7881610e3e565b809150509250929050565b5f5f60408385031215610e94575f5ffd5b610e9d83610e03565b946020939093013593505050565b5f60208284031215610ebb575f5ffd5b5035919050565b5f5f5f5f5f60a08688031215610ed6575f5ffd5b610edf86610e03565b9450610eed60208701610e03565b9350610efb60408701610e03565b94979396509394606081013594506080013592915050565b634e487b7160e01b5f52601160045260245ffd5b80820180821115610f3a57610f3a610f13565b92915050565b5f60208284031215610f50575f5ffd5b8151610e3781610e3e565b5f60208284031215610f6b575f5ffd5b5051919050565b634e487b7160e01b5f52604160045260245ffd5b634e487b7160e01b5f52603260045260245ffd5b5f60a0820187835286602084015260a0604084015280865180835260c0850191506020880192505f5b81811015610fea5783516001600160a01b0316835260209384019390920191600101610fc3565b50506001600160a01b039590951660608401525050608001529392505050565b5f6020828403121561101a575f5ffd5b815167ffffffffffffffff811115611030575f5ffd5b8201601f81018413611040575f5ffd5b805167ffffffffffffffff81111561105a5761105a610f72565b8060051b604051601f19603f830116810181811067ffffffffffffffff8211171561108757611087610f72565b6040529182526020818401810192908101878411156110a4575f5ffd5b6020850194505b838510156110c7578451808252602095860195909350016110ab565b509695505050505050565b81810381811115610f3a57610f3a610f1356fea2646970667358221220e04d811ad4f0319ab484150339a4d8db645b626686fc9973155e95e16886f3da64736f6c634300081b0033","linkReferences":{}},"methodIdentifiers":{"checkIfTokenInWallet(address)":"e14a26b9","checkIsOperator(address)":"1f8e5f91","checkIsWhitelistedRouter(address)":"a3aad681","deposit(address,uint256)":"47e7ef24","getTokenBalance(address)":"3aecd0e3","getTokenByIndex(uint256)":"644b7a43","performSwapV2(address,address,address,uint256,uint256)":"8308eb79","s_balances(address)":"ab32eb69","s_isOperator(address)":"01092894","s_isTokenInWallet(address)":"d9d7b351","s_isWhitelistedRouter(address)":"abac3234","s_owner()":"e3978240","s_tokenCounter()":"0b21a83b","s_tokens(uint256)":"acc10c49","setOperator(address,bool)":"558a7297","setWhitelistedRouter(address,bool)":"20e91e3a","withdraw(address,uint256)":"f3fef3a3","withdrawAll()":"853828b6"},"id":19}